:020000040800F2
:1000000068080020D5010008C1030008C3030008E8
:10001000C7030008CB030008CF030008000000005E
:10002000000000000000000000000000D3030008F2
:10003000D503000800000000D7030008D90300081A
:10004000EB010008EB010008EB010008EB010008E0
:10005000EB010008EB010008EB010008EB010008D0
:10006000EB010008EB010008EB010008EB010008C0
:10007000EB010008EB010008EB010008EB010008B0
:10008000EB010008EB010008EB010008EB010008A0
:10009000EB010008EB010008EB010008EB01000890
:1000A000EB010008B11C0008EB010008EB0100089F
:1000B000EB010008EB010008EB010008EB01000870
:1000C000EB010008EB010008EB010008EB01000860
:1000D000EB010008EB010008EB010008A10A000891
:1000E000EB010008EB010008EB01000800F002F84A
:1000F00000F05AF80AA090E8000C82448344AAF168
:100100000107DA4501D100F04FF8AFF2090EBAE865
:100110000F0013F0010F18BFFB1A43F0010318473B
:100120007C9000009C9000000A4410F8014B14F0F1
:100130000F0508BF10F8015B240908BF10F8014B38
:100140006D1E05D010F8013B6D1E01F8013BF9D181
:10015000641E03D0641E01F8015BFBD19142E4D31D
:10016000704700000023002400250026103A28BF15
:1001700078C1FBD8520728BF30C148BF0B60704719
:10018000662908F08280642905F074820020704797
:100190001FB505F005FE04000020002106F018FF41
:1001A000E0601FBD10B510BD05F042FF1146FFF71E
:1001B000EFFF00F02BF805F060FF03B4FFF7F2FF4C
:1001C00003BC00F0BFFA000030BF72B662B680F325
:1001D0000888704708480047FEE7FEE7FEE7FEE7AD
:1001E000FEE7FEE7FEE7FEE7FEE7FEE70348044919
:1001F000044A054B70470000ED000008680200202B
:100200006808002068040020680400200EB500BFC4
:10021000092000F03FFA482000F0E0F8022000F04A
:1002200024FA012000F021FA00F010FB00F046FB58
:100230004FF4E131482000F0A2FA4FF41651242087
:1002400000F0BCFB00F062FD002141F61F4000F011
:1002500089FE00F0DDFE00F012FF00F083FF04F0E5
:10026000FEFE04F010FF41F61F41312000F03AFE7F
:1002700068E03548007801281AD104F065FF33485A
:100280000068334908603349B1F9020007F020FEE5
:10029000314908602F49B1F9040007F019FE2F49D0
:1002A000086000BF00BF00BF00BF00BF00BF00BFAD
:1002B0002B480078012803D023480078012841DD2D
:1002C00028480078012804D14FF4FA7000F0BCF8F7
:1002D00038E005F01AF9244908601D48006807F065
:1002E0002BFC04460B462148006821490968214A35
:1002F0001268CDE90021029022461FA005F07AF98C
:1003000000211348006807F00FFE0ED2284910485C
:10031000006807F03DFC064607F00EFC0446224646
:100320000B4624A005F066F909E00948006807F0CB
:1003300003FC044622460B461EA005F05BF9642030
:1003400000F082F895E70000000000204401002042
:10035000200000203401002024000020280000207C
:100360000200002003000020180000201C000020D4
:100370000C00002008000020C6BDBAE2C7E3BDC7DC
:1003800025662020D7F3C2D6B1E0C2EBC6F72564BC
:100390002020D3D2C2D6B1E0C2EBC6F7256420201C
:1003A000B5E7B3D8B5E7D1B925646D560D0A00009D
:1003B0000000B443BDC7B6C8A3BA25660A00000052
:1003C000704700BFFEE700BFFEE700BFFEE700BFCB
:1003D000FEE7704770477047704700004FF0E0211C
:1003E000096921F004014FF0E0221161C21700EB0E
:1003F0005272D210224B1A701946097801EB410251
:10040000C2EBC1114FF6FF7202EAC1011D4A118011
:10041000704701461A4A12784A434FF0E0235A6166
:1004200000229A6101221A6100BF4FF0E022106998
:1004300010F0010F02D010F4803FF6D000224FF0F0
:10044000E0231A619A61704701460E4A12884A43B6
:100450004FF0E0235A6100229A6101221A6100BF25
:100460004FF0E022106910F0010F02D010F4803F2D
:10047000F6D000224FF0E0231A619A617047000025
:100480003000002032000020A34A0A400243A34B60
:100490001A6070470146072323EA010212029F4BAC
:1004A0001B1D18684FF6FF0318409D4B184310435F
:1004B0009A4B1B1D186070472DE9F041074688468E
:1004C00014461D462846FFF7E5FFC5F1040007FA6C
:1004D00000F60F20284100EA0800064306F00F0648
:1004E000E21704EBD26252114FF0E02303EB8202D9
:1004F000D2F800212146E31704EBD3635B11A4EB90
:10050000431C012303FA0CF31A432046E31704EBC0
:10051000D3635B114FF0E02C0CEB8303C3F8002195
:100520008048005D40EA06107E490855BDE8F0812C
:1005300070B504460B46CE1701EB9676B010CE1779
:1005400001EB9676B610A1EB8606B606350E764B15
:100550009B6943F00103744EB3614FEAB63353F81D
:1005600020300F26AE40B343704E46F8203033465D
:1005700053F8203004FA05F633436C4E46F8203029
:100580006B4B1E6801238B401E43694B1E6012F0AB
:10059000010F08D0664B0C331B6801268E40334395
:1005A000634E0C36336012F0020F08D0604B0833F4
:1005B0001B6801268E4033435D4E0836336070BDA4
:1005C00000B5002058490861C86014204861002027
:1005D0008861C8610846006840F00100086008466C
:1005E00040685449084050494860084600685249EC
:1005F00008404D4908600846006820F480200860E3
:100600000846406820F4FE00486000208860002111
:100610004FF00060FFF738FF00BD10B53F480830CD
:10062000006840F004003D49083108603E48C06958
:1006300040F080503C49C8614048406840F48070B8
:100640003E4948600846006840F0040008600846DB
:10065000006840F002000860FFF7B6FD10BD3048AA
:10066000001D2E49091D08607047014649062E4AA3
:10067000926942F001022C4B9A612C4A083A526866
:1006800022F0E062294B083B5A601A4652680A433E
:100690005A60704730B504460025FFF791FF2248A5
:1006A000006840F480302049086000BF1E480068A0
:1006B000400CFBD04FF480601B494860A01EC4B2C0
:1006C0000846406840EA844048600846406840F474
:1006D000803048601A48006840F0320018490860CD
:1006E0001148006840F080700F49086000BF0E4854
:1006F0000068400EFBD00C48406840F002000A49F8
:10070000486005E008484068C0F3870505F0030528
:10071000022DF7D130BD000080FFFF1F08ED00E083
:100720000000FA0500E400E000100240080001406B
:10073000000401400000FFF8FFFFF6FE00700040DB
:1007400000200240014600BF70473A4A1278012A51
:100750000AD100BF384A128812F0400FFAD0C2B254
:10076000354B1B1D1A8009E000BF344A128812F075
:10077000400FFAD0C2B2314B1B1D1A8070472DE9D1
:10078000F05F05460E46300107F0BAFB81462C4962
:1007900005FB01F007F0B4FB8246494607F066FA14
:1007A0000746384607F074FB84B2204607F0A8FBE2
:1007B0008346394607F0E9FC82464FF0834107F053
:1007C000E7FB814607F064FB80464FF6FF7000EAC6
:1007D000041404EB080084B21A48806940F0040055
:1007E000184988610846806940F48040886116484D
:1007F000006820F47F60144908600846006840F4EF
:100800000B6008600F48C06840F480400D49C86024
:100810000846C06820F48040C8600848083004805A
:10082000001D008842F20C01084304490C31088085
:10083000BDE8F09F03000020004800400038014060
:1008400040420F0000100240040801401648806931
:1008500040F00800144988611448006820F00F0037
:10086000124908600846006840F0030008600F481D
:100870000830006840F480700C4908310860704707
:100880000B490968491C0A4A116081420AD1094989
:1008900009686FEA0101084AC2F8A0114FF000018F
:1008A000034A11607047000000100240040C014030
:1008B00038000020A0812142008021423748806911
:1008C00040F00800354988613548006820F4700020
:1008D000334908600846006840F40000086030486A
:1008E0000C30006840F020002D490C310860704742
:1008F00001462C48006828B92B48007810B901201F
:10090000294A107029480078B0B927480078012892
:1009100007D127480078401C254A10700120234A3F
:10092000107023480078022806D10020204A107059
:10093000204A1080022070471A480068012804D11C
:100940000020194A1070194A1070194800780128BF
:100950000ED118480088401C80B2164A1080884288
:1009600006DD0020124A1070124A10800120E2E7D2
:100970000020E0E71048007838B10A48006820B944
:1009800000200D49087001207047064800680128C2
:1009900001D1094908700020F6E70000001002406C
:1009A000000C0140148121423C0000203D00002049
:1009B0003E00002040000020420000202DE9F05FB2
:1009C00005460E46300107F09BFA8146C04905FBFB
:1009D00001F007F095FA8246494607F047F90746C5
:1009E000384607F055FA84B2204607F089FA834664
:1009F000394607F0CAFB82464FF0834107F0C8FA38
:100A0000814607F045FA80464FF6FF7000EA04146D
:100A100004EB080084B2AF48806940F00800AD499B
:100A200088610846C06940F48020C861AA4800680F
:100A300020F47F40A84908600846006840F40B4055
:100A40000860A5480830006840F48060A249083179
:100A50000860A048006940F480209E49086108466B
:100A6000006920F4802008619C480480001D0088F3
:100A700042F20C0108439949091D08800846008884
:100A800040F4807008800846008840F0200008800C
:100A90000223272203210846FFF70EFDBDE8F09F41
:100AA0008E480838008810F0200F71D08B48001F46
:100AB00000888B490860084600788A490870084613
:100AC000007889490978884212D186484078864959
:100AD000497888420CD18348807883498978884254
:100AE00006D10020814908707E49087048708870DE
:100AF0007C4800787E490978884213D1794840784B
:100B00007B49497888420DD1764880787849897840
:100B1000884207D10120754908700020714908708A
:100B2000487088706E480068592802D102207149C7
:100B300008706B480068582802D101206D49087080
:100B40006D480078012854D1654800685A2809D1B9
:100B500000206A4908706A4908706A4908706A4941
:100B60000870ACE05E480068772806D10120634930
:100B70000870002062490870A1E059480068732895
:100B800007D100205D49087001205D49087096E09A
:100B90009CE053480068612807D05148006843280A
:100BA00003D04F480068442806D1002055490870FA
:100BB00001205549087082E049480068642807D040
:100BC00047480068472803D045480068482806D1B0
:100BD00001204C49087000204B4908706FE000204C
:100BE00046490870464908704649087046490870E9
:100BF00065E001203F4908703948006848B9002085
:100C00003E4908703E4908703E4908703E490870E8
:100C100055E033480068012809D1384908700020A0
:100C200037490870374908703749087047E02C4841
:100C3000006805280BD10020304908700120304998
:100C4000087000202F4908702F49087037E02448A9
:100C50000068022807D022480068032803D02048F3
:100C6000006804280AD1002024490870244908702B
:100C70002449087001202449087020E018480068C1
:100C8000062807D016480068072803D014480068D3
:100C900008280BD100201949087019490870012053
:100CA0001849087000201849087008E0002013490E
:100CB00008701349087013490870134908700948EF
:100CC00040780849887008460078487070470000EE
:100CD00040420F0000100240040C01400848004050
:100CE0004C0000205100002047000020020000209E
:100CF0004400002001000020030000200400002028
:100D00000500002006000020070000206C488069D4
:100D100040F004006A4988616A48006820F4702045
:100D2000684908606648806940F4007064498861D9
:100D30000846C06840F40070C8600846C06820F4E7
:100D40000070C8600846406820F44040486008468B
:100D5000406840F4004048605B4800685B490840D8
:100D6000594908600846006808600846006820F491
:100D700080700860081D006820F00200091D0860EE
:100D80000846006820F4602008600846006840F4C7
:100D9000602008600846006840F48010086008463B
:100DA000006820F40060086047482830006820F49C
:100DB0007000454928310860084600680020086036
:100DC00041480C30006820F470203F490C31086025
:100DD0000846006840F4E04008603B48001D006899
:100DE00040F001003849091D08600846006840F0DD
:100DF0000800086000BF3448001D006810F0080FAC
:100E0000F9D13148001D006840F004002E49091D49
:100E1000086000BF2C48001D006810F0040FF9D1D5
:100E20007047014628483030006820F01F00264AED
:100E30003032106010460068084310602248001DE0
:100E4000006840F48000204A121D106000BF1E4858
:100E5000001F006810F0020FF9D01B4848300068EE
:100E600080B270472DE9F04F87B00420FFF7D9FF1B
:100E7000019006F038FB80464FF06632144B06F0C6
:100E800081FB0022134BCDE9020106F07BFB00221F
:100E9000114BCDE9040106F075FB064600220F4B0D
:100EA00006F09AF9044600220D4B06F095F98246A9
:100EB00006F0EAFA0690069807B0BDE8F08F000049
:100EC000001002400008014004240140FFFFF00030
:100ED00066660A4000002740000059400000F83FC5
:100EE0000000B04070B505460C461348806940F4D8
:100EF00000601149886111480580001F04800F4877
:100F00002038008840F001000C492039088008464C
:100F1000008840F04000088008482C38008840F0E5
:100F2000010006492C3908800223192203210120DF
:100F3000FFF7C2FA70BD0000001002402C2C0140E7
:100F40002F48806940F008002D4988612D480068CD
:100F500080B22C490860084600682B49084329499B
:100F60000860704700B503460A46FFF7E9FF2448CA
:100F7000C06940F002002249C8610846806940F01B
:100F8000080088611F48001F006820F0FF001D490D
:100F9000091F08600846006840F0BB0008601B4855
:100FA0000380001F028019481038008840F4C040B8
:100FB0001649103908800846008840F06000088013
:100FC0000846008840F4006008800846008840F029
:100FD00008000880081D008840F48050091D088022
:100FE0000846008840F480700880C81307492C39EF
:100FF00008800846008840F00100088000BD00001D
:1010000000100240040C0140000022222C04004089
:101010004F48C06940F001004D49C86108468069E9
:1010200040F0040088614B48006820F0FF00494907
:1010300008600846006840F0440008600020C904C9
:1010400008854FF6FE7088850846008B40F0010049
:1010500008830846008B40F4807008830846008CA3
:1010600008840846008C08840846008940F0030084
:1010700008810846008840F0010008807047344825
:10108000C06940F004003249C8610846806940F0F8
:10109000080088613048006820F07F402E490860D1
:1010A0000846006840F08840086000202B4908800E
:1010B0004FF6FE70091D088028481038008840F05F
:1010C00001002649103908800846008840F48070E5
:1010D00008802248083800882049083908800846D6
:1010E000008808801D482038008840F003001B4914
:1010F0002039088019482838008840F00100174935
:101100002839088070470146022904D003290BD0F2
:10111000042919D10FE04FF08042928C10B20022C6
:101120004FF080439A8411E00D4A128810B20022D9
:101130000B4B1A800AE0094A121F128810B20022D3
:10114000064B1B1F1A8001E0002000BF00BF704744
:101150000010024000080140000C01402808004037
:1011600024040040F748806940F00400F549886194
:10117000F54800684FF20F018843F34908600846BC
:10118000006843F203010843EF490860704710B557
:10119000ED48006820F00F00EB4908600846006841
:1011A00040F0030008600120E8490860E848D0F8F2
:1011B000200108B9002010BD0120E6490860FFF7B2
:1011C00028F90020E249C1F8A001E348006808B10D
:1011D0000020F0E70120FFF71CF90020DD4908603E
:1011E0004FF00100E7E710B5D748006820F00F0086
:1011F000D54908600846006840F0030008600020F8
:10120000D4490860D249C1F8A0014FF00100FFF7AE
:1012100000F90120CF490860CD49C1F8A001FFF7CE
:10122000F8F810BD10B50024C748006820F00F0082
:10123000C54908600846006840F0080008600120C1
:10124000C2490860FFF7E5F80120C149C1F8AC01C7
:10125000FFF7DFF80AE0601CC4B2322C03DDFFF7B1
:10126000C2FF002010BD0120FFF7D3F8BA48006884
:101270000028F0D1B74908604FF00100F2E710B53F
:101280000020B4490860B048006820F00F00AE4963
:1012900008600846006840F0030008604FF0000056
:1012A000AB49C1F8A0014FF00100FFF7B2F80120EF
:1012B000A8490860FFF7ADF80020A549C1F8AC01C6
:1012C00010BD10B50020A34908609F48006820F0B9
:1012D0000F009D4908600846006840F00300086060
:1012E0004FF001009A49C1F8A001FFF792F80120E0
:1012F00098490860FFF78DF800209549C1F8AC01C6
:1013000010BD70B504469048006820F00F008E496B
:1013100008600846006840F00300086000208D491E
:101320000860054619E0E009884908604FEA446012
:101330004FEA10644FF00100FFF76BF80120844979
:10134000C1F8AC01FFF765F80020824908604FF052
:101350000100FFF75EF8681CC5B2082DE3DB70BD25
:101360002DE9F04105460E4617469846FFF70FFF58
:1013700010B90120BDE8F0816906080EFFF7C1FF32
:10138000FFF750FF18B9FFF72EFF0120F2E73046B4
:10139000FFF7B7FFFFF746FF00240BE018F8040043
:1013A000FFF7AFFFFFF73EFF18B9FFF71CFF002064
:1013B000E0E7641CBC42F1DBFFF715FF0020D9E732
:1013C00070B5054600246048006820F00F005E49B3
:1013D00008600846006840F008000860002616E033
:1013E00000205C4908604FF00200FFF712F801206E
:1013F0005749C1F8AC016006040E5748006808B1AF
:10140000601CC4B20220FFF704F8701CC6B2082E9C
:10141000E6DB15B1FFF733FF01E0FFF752FF20468F
:1014200070BD2DE9F04106460F4614461D46FFF7F4
:10143000AEFE10B90120BDE8F0817106080EFFF77D
:1014400060FFFFF7EFFE18B9FFF7CDFE0120F2E7CE
:101450003846FFF756FFFFF7E5FEFFF798FE01213C
:1014600001EB4601C8B2FFF74CFFFFF7DBFE0DE0D2
:10147000012C04D10020FFF7A3FF287003E0012016
:10148000FFF79EFF28706D1C601EC4B2002CEFD1C8
:10149000FFF7A9FE0020CEE770B505460E460024F2
:1014A000FFF775FE2846FFF72CFF641CFFF7BAFE16
:1014B0003046FFF726FF641CFFF7B4FEFFF767FE18
:1014C000691CC8B2FFF71DFF641CFFF7ABFE0020CC
:1014D000FFF776FF0446FFF786FE204670BD2DE934
:1014E000F0410746884615461E460024FFF74FFE8A
:1014F0003846FFF706FFFFF795FE4046FFF701FF6E
:10150000FFF790FEFFF743FE791CC8B2FFF7F9FE24
:10151000FFF788FE00BF0DE0681EA04204D0012046
:10152000FFF74EFF305503E00020FFF749FF30552D
:10153000601CC4B2AC42EFDBFFF755FE2046BDE8AD
:10154000F08100000010024004080140A001214287
:1015500000002142AC012142200121422DE9F0414D
:1015600080460D4616461F460024FFF710FE4046F3
:10157000FFF7C7FEFFF756FE2846FFF7C2FEFFF74C
:1015800051FE00BF06E0385DFFF7BBFEFFF74AFEE5
:10159000601CC4B2B442F6DBFFF725FE0120BDE8B3
:1015A000F08170B505460E46144631462846FFF7D1
:1015B00073FF2070012070BD37B504460D4602ABA5
:1015C000012229462046FFF7C9FF3EBD2DE9F84319
:1015D0000746884614461D46089E6A4641463846D8
:1015E000FFF7DFFF28B3601CFF2101FA00F0C4F110
:1015F00008012944491EFF220A41104300F0FF0957
:10160000C5F1080006FA00F0C6B2C4F107000641B1
:101610009DF8000000EA090000909DF800003043AA
:1016200000909DF8002041463846FFF7C5FFBDE811
:10163000F8830020FBE7F8B506460F4614461D4622
:101640006A4639463046FFF7ACFF2DB10120A04075
:101650009DF80010084305E00120A0409DF800100F
:1016600021EA0000C0B200909DF8002039463046C3
:10167000FFF7A2FFF8BD00000146002901DA484249
:1016800000E00846704700B503460A46002B08DD17
:101690000120FB4908604FF00000FA49C1F8B80189
:1016A00007E00020F64908604FF00100F549C1F855
:1016B000B8011846FFF7E0FFF3490880002A08DD6B
:1016C0000020F24908604FF00100EE49C1F8B00176
:1016D00007E00120ED4908604FF00000E949C1F83A
:1016E000B0011046FFF7C8FFE749091F088000BD99
:1016F00070B505460E46E649284606F015FC0ED3A1
:10170000E449284606F010FD09D3E3480078012893
:1017100005D0E248006840F2564188420CDA0124C4
:101720000020DF490860D749C1F8BC01D7490860EB
:10173000D449C1F8B00100E00024204670BD41F654
:10174000BC30D84909684242914202DA4142D54A46
:101750001160D4490968814201DDD2490860D2494B
:1017600009684242914202DA4142CF4A1160CE49B1
:101770000968814201DDCC49086070472DE9F84FC6
:1017800005460E469146C9480078582191FBF0F76E
:10179000384606F09DFB0446DFF814A34FF0000B1B
:1017A000C4480078012803D0C3480078012834D108
:1017B0004FF07E51C148006806F0EAF9BF4907467C
:1017C00008604FF07E5106F013FB07D1A819FFF710
:1017D00053FF074606F07CFBB9490860B84801682A
:1017E000B84806F043FAB84908600846006806F0B1
:1017F000A3F907464FF03332B44B05F087FE02D20F
:10180000B348B1490860B349AF48006806F08CFCA2
:101810000BD2B048AC49086007E0AF48AA4908605D
:101820000020A6490860A6490860A248007801285F
:1018300008D1A5480168A948006806F0B1FCA7498D
:1018400008600FE09C480078012808D19E48016894
:10185000A248006806F09CF9A049086002E0002058
:101860009E49086021469D48006806F05DFC01D253
:101870009A48046084F0004798480168384606F0AA
:1018800053FC03D284F000409449086094480078E7
:10189000012803D093480078012802D14FF07E5BE5
:1018A00001E04FF0000B5946484606F071FB0090EE
:1018B0008A48006880F000485146404606F068FBC0
:1018C0000746009906F06CFC8749086008460068E6
:1018D00006F0C2FABDE8F88F2DE9FC5F834801905D
:1018E000834800907E48007801280AD16F4800782C
:1018F000962191FBF0F4204606F0EAFA7D49086053
:1019000012E07848007801280BD1684800786FF021
:10191000590191FBF0F4204606F0DAFA75490860A7
:1019200002E000207349086073490968734A12682D
:101930001144084606F0CCFA714908607148006805
:1019400006F0FAF806464FF066326F4B05F01AFEC5
:10195000044605F053FB6B4908606948006806F0CF
:10196000EBF880464FF03332684B05F00BFE04462F
:101970000D466448006806F0DFF8064622462B460E
:1019800005F06EFB824605F039FB5E4908600846AB
:1019900001685F48006806F0FBF85D49086055483B
:1019A00001685B48006806F0FBFB5949086059492B
:1019B0005748006806F0B8FB02D256485449086000
:1019C00055495348006806F0AFFA02D252485049D0
:1019D00008604F480099006806F0DAFA0446494862
:1019E0000199006806F0D4FA0546214606F0D0F8C1
:1019F0004A4908602948016849480068FFF778FEAD
:101A0000012802D10020424908604448006806F0DD
:101A100023FABDE8FC9F2DE9F84F05460C46414EE0
:101A20004FF07E573946284606F0BAFB00903946FB
:101A3000204606F0ADFA82463046009906F0A8FA34
:101A40008346514606F0A4F8814606F005FA804622
:101A50004046BDE8F88F10B53220FEF749FF044636
:101A6000012C04D10C480078C0430B490870022CAB
:101A700004D12D480078C0432B49087010BD0000E8
:101A8000BC8121420080214240040040B4812142B7
:101A9000000020C200002042020000201C000020A4
:101AA000B881214210000020140000200100002015
:101AB00000002842060000200700002080000020CF
:101AC00078000020000048427C0000203333E33FD0
:101AD0009A99193F000040406666663F70000020FA
:101AE0000400002005000020740000200000A04237
:101AF000CDCCCC3E68000020080000200C00002067
:101B000060000020640000206666E63F3333D33F68
:101B10006C00002000401C4600401CC65C000020F9
:101B20002000002000009643030000202DE9F04F24
:101B300089B00646012E7DD04621D020FFF7ACFCAF
:101B400080464521D020FFF7A7FC08EB0027384648
:101B500006F0BEF904464821D020FFF79DFC8046E0
:101B60004721D020FFF798FC08EB0027384606F005
:101B7000AFF905463C21D020FFF78EFC80463B2183
:101B8000D020FFF789FC08EB0027384606F0A0F9C3
:101B900082464021D020FFF77FFC80463F21D020A5
:101BA000FFF77AFC08EB0027384606F091F98346E8
:101BB0004FF08E41204606F0B7FA05D24FF08F4124
:101BC000204606F0EDFA04464FF08E41284606F016
:101BD000ABFA05D24FF08F41284606F0E1FA0546F0
:101BE0004FF08E41504606F09FFA05D24FF08F41DC
:101BF000504606F0D5FA82464FF08E41584606F020
:101C000093FA05D24FF08F41584606F0C9FA834641
:101C100084F0004061490860584605F08DFFCDE929
:101C20000001504605F088FF0746DDE9002305F076
:101C3000E7F800E039E00022594BCDE9020105F058
:101C4000A1FC584A584BCDE9040105F0C5FACDE98D
:101C5000060105F0D3F98146204605F06DFF4FF0EF
:101C60006632524BCDE9060105F0B6FA074605F09B
:101C7000C5F904464E480078022806D184F0004792
:101C80003946484602F09EFE09E04948007803289C
:101C900005D184F000473946484602F0AAFF45487E
:101CA0000068454908604548056009B0BDE8F08F07
:101CB00010B54348008810F0010F6CD040480088F0
:101CC00020F001003E4908803E48007808B9012014
:101CD00000E000203B49087008460078012805D143
:101CE00033480078FFF722FF002010BD0220FFF7E5
:101CF0000AFA4042344908600420FFF704FA3349E5
:101D000008602B480078FFF711FF6420FEF7B8FD4C
:101D1000FFF7A8F82E490860FFF79DFE1F480168ED
:101D200025480068FFF777FE2A49086027480168C0
:101D300025480068FFF7D0FD274908601F48026862
:101D40002248016820480068FFF718FD2349086011
:101D50002048006820490968401A20490968084459
:101D60001F4908601B4800681B490968401A1B4945
:101D70000968401A1B490860FFF7E1FC1448016834
:101D80000D480068FFF7B4FC28B9164801681448EC
:101D90000068FFF778FC0020A7E70000240000207F
:101DA00000806640F1D4C853FB210940666630408C
:101DB00000000020E8000020200000202800002073
:101DC000102C014090000020080000200C00002092
:101DD0001C00002084000020880000208C000020CF
:101DE000100000201400002038B50446FB4890F88D
:101DF0002400C0B114B10220009001E00020009046
:101E0000F64A1268D17BF54A526810786B46012277
:101E1000FFF7A6FA10B14FF0FF3038BD9DF8001063
:101E2000EE48417423E0ED48807A10B94FF0FF305E
:101E3000F3E724B1E948407C08B10020EDE714B194
:101E40000120009001E000200090E44A1268D17B5C
:101E5000E24A526810786B460122FFF781FA10B10E
:101E60004FF0FF30D9E79DF80010DC4841740020A6
:101E7000D3E738B5002419E0D8480068C07AA042FA
:101E800004D0D6480068407DA04200D10CE0D34980
:101E9000496808786B4601222146FFF7C2FA10B163
:101EA0004FF0FF3038BD00BF601CC4B2CB48406863
:101EB0000079A042E0DC0020F4E770B504460D464E
:101EC000C6480068C07AA04204D0C4480068407D7B
:101ED000A04202D14FF0FF3070BDC0484068007989
:101EE000A04202DC4FF0FF30F6E7BC4949680878B1
:101EF0002B4601222146FFF794FAEDE738B5044658
:101F0000B64890F82300A04201D1002038BD14B19A
:101F10003020009001E000200090B048807C20B18B
:101F20009DF8000040F002000090AC4890F82200BC
:101F300020B19DF8000040F080000090A74A126890
:101F4000117DA64A526810786B460122FFF708FA05
:101F500010B14FF0FF30D9E7A04880F823400020AF
:101F6000D4E738B5044614F0700F02D00120009079
:101F700005E014B10020009001E040200090974A55
:101F80001268917C954A526810786B460122FFF7DF
:101F9000E7F920B1002191488172481E38BD9DF8B3
:101FA000000020F040018D4801730020009014F0E3
:101FB000400F04D19DF8000040F00400009014F0A0
:101FC000200F04D19DF8000040F00200009014F0B2
:101FD000100F04D19DF8000040F00100009014F0B3
:101FE000080F04D19DF8000040F0380000907B4AB3
:101FF0001268D17C794A526810786B460122FFF74B
:10200000AFF920B1002175488172481EC6E724B19E
:10201000082C02D00020FFF771FF70488472002165
:1020200001753220FEF710FA0020B7E738B50446F4
:102030006A48807CA04201D1002038BD002C46D0E7
:10204000664A12681179654A526810786B46012217
:10205000FFF7E7F910B14FF0FF30EEE79DF8000011
:1020600020F0200000905D4A126811795B4A5268A6
:1020700010786B460122FFF773F910B14FF0FF3073
:10208000DBE70320FEF7E0F902200090534890F8C8
:10209000220020B19DF8000040F0800000904F48E1
:1020A00090F8230020B19DF8000040F0300000902F
:1020B0004A4A1268117D494A526810786B460122DB
:1020C000FFF74EF9002851D04FF0FF30B5E7434AF3
:1020D00012681179414A526810786B460122FFF765
:1020E000A0F910B14FF0FF30A7E73C48807A10F01C
:1020F000010F05D09DF8000040F02000009004E0A2
:102100009DF8000020F020000090344A12681179F8
:10211000324A526810786B460122FFF721F910B15C
:102120004FF0FF3089E70320FEF78EF92B4890F837
:10213000220010B18020009001E00020009027488C
:1021400090F8230020B19DF8000040F0300000908E
:10215000224A1268117D214A526810786B4601228A
:10216000FFF7FEF810B14FF0FF3066E71B488474AC
:10217000002062E708B51948807A10B94FF0FF30A7
:1021800008BD00200090154A1268D17B134A52689E
:1021900010786B460122FFF7E3F810B14FF0FF30E3
:1021A000EEE70E4A126851790C4A526810786B4675
:1021B0000122FFF7D5F810B14FF0FF30E0E7074AF2
:1021C00012681179054A526810786B460122FFF7B0
:1021D000C7F828B14FF0FF30D2E70000940000208C
:1021E000F74890F82400002850D00C200090F44AC2
:1021F00012681179F24A526810786B460122FFF793
:10220000AFF810B14FF0FF30BAE7C0200090EC48B3
:10221000807A10F0010F04D09DF8000040F02000FB
:102220000090E74A12681179E54A526810786B46C7
:102230000122FFF795F810B14FF0FF30A0E7E0481A
:10224000407C10B10220009001E000200090DC4AA8
:102250001268D17BDA4A526810786B460122FFF788
:102260007FF810B14FF0FF308AE700200090D44A89
:1022700012685179D24A526810786B460122FFF7F2
:102280006FF8002852D04FF0FF3079E7042000901B
:10229000CB4A12681179CA4A526810786B460122FB
:1022A000FFF75EF810B14FF0FF3069E7C448807C5B
:1022B00020B9C348807A10F0010F02D1402000906D
:1022C00001E060200090BE4A12681179BC4A526851
:1022D00010786B460122FFF743F810B14FF0FF3042
:1022E0004EE7B748407C10B10120009001E000208B
:1022F0000090B34A1268D17BB14A526810786B469D
:102300000122FFF72DF810B14FF0FF3038E7AC4A4B
:1023100012685179AA4A52681078A94B10330122E9
:10232000FFF71EF810B14FF0FF3029E7002027E734
:1023300070B50446002624F00104A14890F824005A
:1023400008B1002070BD9E48807A10B94FF0FF3070
:10235000F8E79B48057C807A204099490874084634
:10236000007CA04202D04FF0FF3600E0002614B9F6
:102370009348007D18B10120FFF736FD02E00020F0
:10238000FFF732FD3CB1FFF7F5FE20B18C48057434
:102390004FF0FF30D6E73046D4E738B504468848DA
:1023A000807A10B94FF0FF3038BDBC2C02DB012021
:1023B000009015E0622C02DB0220009010E02A2C35
:1023C00002DB032000900BE0142C02DB04200090C1
:1023D00006E00A2C02DB0520009001E006200090B8
:1023E0007748C07A9DF80010884201D10020DBE7D1
:1023F000734A12689178724A526810786B460122CB
:10240000FEF7AEFF10B14FF0FF30CDE79DF80010A2
:102410006B48C1720020C7E738B50446282C02DD9E
:102420004FF0FF3038BDDCB90020FFF767FD00201A
:102430008DF8000007208DF80100614A1268917C38
:102440005F4A526810786B460222FEF789FF10B18E
:102450004FF0FF30E6E70021594801750020E1E721
:102460000120FFF74BFD20208DF80000012C06D144
:1024700000208DF801000520FFF78FFF17E0052CE5
:1024800006DC01208DF801000520FFF786FF0EE035
:10249000142C06DC02208DF801000A20FFF77DFFD6
:1024A00005E003208DF801001420FFF776FF9DF86A
:1024B0000100072101EB8010C0B28DF80100404AF5
:1024C0001268917C3E4A526810786B460222FEF7F1
:1024D00047FF10B14FF0FF30A4E708213848817260
:1024E00000210173012101750020FFF721FF002069
:1024F00098E738B504463248807A10B94FF0FF307B
:1025000038BD2F4890F8240010B14FF0FF30F7E7A6
:102510002B48007D50B134B1282C04DCE0B2FFF729
:102520007BFF0020ECE70020FFF776FF042C01DAA8
:10253000042404E0B4F57A7F01DD4FF47A744FF49B
:102540007A7090FBF4F0401EC0B200901C4A1268F2
:1025500051781B4A526810786B460122FEF700FF43
:1025600010B14FF0FF30CBE79DF80000401C4FF456
:102570007A7191FBF0F081B21148C1810146C9899D
:102580004810FFF70AFF0020BAE738B504460C48A8
:10259000807A10B94FF0FF3038BD022C06D0042CE1
:1025A00007D0082C08D0102C0FD10BE00020009091
:1025B0000EE0082000900BE01020009008E00000E2
:1025C000940000201820009002E04FF0FF30E3E775
:1025D00000BFF948407A9DF80010B0EBE10F01D13F
:1025E0000020D9E7F44A1268D179F34A526810788A
:1025F0006B460122FEF7B4FE10B14FF0FF30CBE77F
:102600009DF80000C110EC4841720020C4E738B5C5
:102610000446E948807A10B94FF0FF3038BDFA2CF3
:1026200009D0B4F5FA7F09D0B4F57A7F09D0B4F5B2
:10263000FA6F0CD108E0002000900BE00820009019
:1026400008E01020009005E01820009002E04FF014
:10265000FF30E3E700BFD848007A9DF80010B0EBE8
:10266000E10F01D10020D9E7D34A12689179D24A0B
:10267000526810786B460122FEF772FE10B14FF0DF
:10268000FF30CBE79DF80000C010CB490872002056
:10269000C4E71CB580208DF80000C74A1268917C01
:1026A000C54A526810786B460122FEF759FE10B1F8
:1026B0004FF0FF301CBD6420FDF7C6FE00208DF8F2
:1026C0000000BD4A1268917CBB4A526810786B4684
:1026D0000122FEF745FE10B14FF0FF30EAE7B64A9F
:1026E0001268917DB44A526810786B460622FEF754
:1026F00098FE10B14FF0FF30DCE79DF80500C007F1
:10270000400F9DF8031001F0010140EA41009DF8DF
:10271000011001F0010140EA010494B1012C03D140
:102720000121A548C17431E0022C03D10021A24847
:10273000C1742BE02146A1A002F05CFF4FF0FF30F6
:10274000B8E79D4A1268D1789B4A526810786B4668
:102750000122FEF766FE10B14FF0FF30AAE79DF8A8
:10276000000000F00F042CB99E4802F043FF4FF028
:10277000FF309FE7042C06D19BA002F03BFF012114
:102780008D48C17402E000218B48C174FF218A4842
:102790008172FF2088490872FF2187484172C17207
:1027A0004FF6FF71C181FF21017481740121017312
:1027B00080F82210002180F8231041750175163031
:1027C000016041608160163880F8241080F825107F
:1027D000C1844FF4FA60FFF71AFF10B14FF0FF30D9
:1027E00068E70220FFF7D1FE10B14FF0FF3061E73C
:1027F0002A20FFF7D2FD10B14FF0FF305AE7322008
:10280000FFF777FE10B14FF0FF3053E70020FFF7DE
:102810008FFD10B14FF0FF304CE70020FFF706FCB2
:1028200010B14FF0FF3045E70020FFF79AFB002082
:1028300040E770477CB504460D465F48807A10F04B
:10284000700F02D14FF0FF307CBD5B4A1268117BE4
:10285000594A526810786B460622FEF7E2FD10B125
:102860004FF0FF30F0E79DF801009DF8001040EABE
:10287000012000B220809DF803009DF8021040EA7C
:10288000012000B260809DF805009DF8041040EA28
:10289000012000B2A08015B12846FFF7CAFF002032
:1028A000D2E77CB504460D464348807A10F0080F05
:1028B00002D14FF0FF307CBD3F4A1268517B3E4A47
:1028C000526810786B460622FEF7ABFD10B14FF050
:1028D000FF30F0E79DF801009DF8001040EA01206C
:1028E00000B220809DF803009DF8021040EA01200C
:1028F00000B260809DF805009DF8041040EA0120B8
:1029000000B2A08015B12846FFF793FF0020D2E760
:102910002DE9FE4F05460C462748807A18B94FF03E
:10292000FF30BDE8FE8F244A1268917B224A52682C
:10293000107802AB0222FEF774FD10B14FF0FF30A9
:10294000EFE79DF809009DF8081040EA012006B263
:1029500014B12046FFF76DFF17494968C88805F094
:10296000CFFA154901904968B1F9080005F0B0FAAD
:102970008346304605F0ACFA5946009005F010FC4D
:102980008246019905F072F981461F4905F000F968
:1029900080464FF08F4105F0FBFA074605F05CFAE0
:1029A00028600020BDE710B588B004461CB94FF080
:1029B000FF3008B010BD29E094000020556E7375FB
:1029C00070706F7274656420736F6674776172657E
:1029D0002070726F64756374207265762025642E92
:1029E0000A000000D083000848616C662073656EA1
:1029F0007369746976697479207061727420666F86
:102A0000756E642E0D0A000000000C42206830B97B
:102A1000606820B9A06810B9002008B010BDF8495E
:102A20004968087806AB03221146FEF7FAFC10B19C
:102A30004FF0FF30F1E79DF81800082101EB20105E
:102A400000F00F00ADF800009DF8190001EB201018
:102A500000F00F00ADF802009DF81A0001EB201005
:102A600000F00F00ADF8040020684100BDF900003F
:102A7000403091FBF0F000B2ADF81000606841000A
:102A8000BDF90200403091FBF0F000B2ADF8120049
:102A9000A0684100BDF90400403091FBF0F000B2A5
:102AA000ADF81400D6494968087806AB06221146ED
:102AB000FEF7B7FC10B14FF0FF30AEE79DF81900FC
:102AC0009DF8181040EA012000B2ADF808009DF80A
:102AD0001B009DF81A1040EA012000B2ADF80A0070
:102AE0009DF81D009DF81C1040EA012000B2ADF8D1
:102AF0000C00BDF81000BDF80810084400B2ADF895
:102B00001000BDF81200BDF80A10084400B2ADF87C
:102B10001200BDF81400BDF80C10084400B2ADF866
:102B20001400BDF81000000A8DF81800BDF8100060
:102B3000C0B28DF81900BDF81200000A8DF81A0015
:102B4000BDF81200C0B28DF81B00BDF81400000AD9
:102B50008DF81C00BDF81400C0B28DF81D00A84906
:102B60004968087806AB06221146FEF7F9FB10B15A
:102B70004FF0FF3051E700204FE70146A048007AB0
:102B800030B1012807D0022809D003280FD10AE06C
:102B9000FA2008800EE04FF4FA7008800AE04FF443
:102BA0007A70088006E04FF4FA60088002E00020A6
:102BB000088000BF00BF0020704701469048407A5F
:102BC00030B1012807D0022808D003280CD108E032
:102BD000022008700BE00420087008E0082008704C
:102BE00005E01020087002E04FF0FF30704700BF92
:102BF0008348C07C18B108784006000E0870002099
:102C0000F4E701467E48C07A082817D2DFE800F0D2
:102C10001704070A0D101318BC20088013E0622067
:102C2000088010E02A2008800DE0142008800AE0C7
:102C30000A20088007E00520088004E000BF00BFEC
:102C40000020088000BF00BF0020704701466C488C
:102C500090F8240010B14FF0FF3070476848C089E9
:102C600008800020F9E7014600200880401E7047D8
:102C700001464FF0FF30704701466148007A30B19D
:102C8000012807D0022808D003280CD108E05D48AD
:102C900008600BE05C48086008E05C48086005E0FC
:102CA0005B48086002E04FF0FF30704700BF002033
:102CB000FBE701465248407A30B1012808D002288B
:102CC0000AD0032810D10BE04FF4804008800EE0BA
:102CD00041F69C7008800AE04FF48050088006E0BE
:102CE0004FF40060088002E04FF0FF30704700BFF3
:102CF0004348C07C10B10888401008800020F5E7E8
:102D000001463F48007C08700020704701463C485F
:102D1000807A10B10120087001E0002008700020C6
:102D2000704738B504463648807A10B94FF0FF3006
:102D300038BD334A1268117C314A526810786B46AC
:102D40000222FEF76EFB10B14FF0FF30F0E79DF866
:102D500001009DF8001040EA012000B22080002010
:102D6000E6E72DE9FE4F0746884692461D46DDF808
:102D700030B000260024224890F8240010B1601ED4
:102D8000BDE8FE8F002028701D48807A10B94FF0F2
:102D9000FF30F5E71A48007C10B94FF0FF30EFE73D
:102DA0001748007C10F0400F00D0B61C1448007C7F
:102DB00010F0200F00D0B61C1148007C10F0100F4E
:102DC00000D0B61C0E48007C10F0080F00D0B61DD5
:102DD0000B4A1268917A0A4A526810786B460222AE
:102DE000FEF71FFB10B14FF0FF30C9E79DF801005F
:102DF0009DF8001040EA0129B1450BDA0020BFE739
:102E00009400002000000343000083423333034258
:102E100033338341F84840684088B9EB600F17DDD1
:102E2000F54A1268517CF44A526810786B460122C8
:102E3000FEF7F7FA10B14FF0FF30A1E79DF8000060
:102E400010F0100F04D0FFF795F96FF0010097E72D
:102E50005046FFF7EEFCE84A1268D17AE64A52681B
:102E600010786B463246FEF7DCFA10B14FF0FF30B7
:102E700086E799FBF6F0401E8BF8000000202870D2
:102E8000B44229D0DC48007C10F0080F24D0601C2C
:102E90001DF800001DF8041040EA012000B2A8F857
:102EA0000000E01C1DF80010A01C1DF8000041EA05
:102EB000002000B2A8F80200601D1DF80010201DBF
:102EC0001DF8000041EA002000B2A8F804002878AC
:102ED00040F008002870A41DB44212D0C648007CFF
:102EE00010F0400F0DD0601C1DF800001DF80410FC
:102EF00040EA012000B23880287840F04000287075
:102F0000A41CB44212D0BC48007C10F0200F0DD09D
:102F1000601C1DF800001DF8041040EA012000B2FA
:102F20007880287840F020002870A41CB44212D089
:102F3000B148007C10F0100F0DD0601C1DF800008F
:102F40001DF8041040EA012000B2B880287840F053
:102F500010002870A41C002012E7F8B504460F46A4
:102F60001646A54890F8240010B94FF0FF30F8BD80
:102F7000A148807A10B94FF0FF30F8E79E4A1268F6
:102F8000917A9D4A526810786B460222FEF749FA00
:102F900010B14FF0FF30EAE79DF801009DF80010F6
:102FA00040EA0125A54203DA00203070401EDEE72A
:102FB000914840684088B5EB600F17DD8E4A126873
:102FC000517C8D4A526810786B460122FEF729FA2F
:102FD00010B14FF0FF30CAE79DF8000010F0100F5D
:102FE00004D0FFF7C7F86FF00100C0E7E2B2824BF0
:102FF0001B68D97A804B5B6818783B46FEF711FA5C
:1030000010B14FF0FF30B2E795FBF4F0401E307086
:103010000020ACE70146784880F822100020704775
:103020007CB5054674494968087801AB04220D2136
:10303000FEF7F7F908B107207CBD9DF80700C0F343
:1030400001109DF8041001F0E00140EAE1008DF864
:1030500000009DF80700C0F381009DF8051001F005
:10306000E00140EAE1008DF801009DF8070000F062
:1030700003009DF8061001F0E00140EAE1008DF840
:10308000020000241CE01DF8040018B9002045F8D7
:10309000240013E0594845F8240006E055F82400C0
:1030A000574904F075FF45F824001DF80400401E40
:1030B00010F0FF000DF80400F0D100BF601CC4B296
:1030C000032CE0DB0020B7E72DE9FE4F06460F4654
:1030D00000256846FFF7A4FF002440E056F82400CE
:1030E00057F82410B0EB010A01D4514601E0CAF1AF
:1030F0000001084604F0ECFE83464FF08F4104F0D7
:10310000B5FD80465DF82400002104F071FE16D064
:103110005DF82410404604F0A9FD82464FF07E5130
:1031200005F03EF8814629F0004A3648416A50468B
:1031300004F0FAFF12D20120A04005430EE031480E
:10314000C169404604F0F0FE05D32E48016A4046AE
:1031500004F0EAFF02D20120A0400543641C032CC6
:10316000BCDB2846BDE8FE8F2DE9FC5F06460F4616
:10317000002521494968087801AB03220D21FEF79B
:1031800050F910B10720BDE8FC9F9DF8040000F045
:103190001F008DF804009DF8050000F01F008DF859
:1031A00005009DF8060000F01F008DF806000024C1
:1031B00060E056F8240057F82410B0EB010B01D45E
:1031C000594601E0CBF10001084604F081FE4FF0C2
:1031D0008F41009004F04AFD814601A8005DC0B314
:1031E0000849086804F08CFE83465946064804F0F6
:1031F0003DFD80460FE00000940000207B14AE3EB1
:103200001D5A843FA883000800B04C45FE49404643
:1032100004F0BEFE804601A8005D401E10F0FF00D5
:1032200001A90855F2D14146484604F01FFD8346E6
:103230004FF07E5104F0B4FF82462AF0004BF34871
:103240008169584604F070FF13D20120A040054365
:103250000FE0FFE7ED480169484604F065FE05D33D
:10326000EA484169484604F05FFF02D20120A040CD
:103270000543641C032C9CDB284684E72DE9F04FB2
:1032800087B005460C46914601208DF810000020BD
:103290008DF81100DE4A1268917CDD4A5268107880
:1032A00004AB0222FEF75CF820B14FF0FF3007B00C
:1032B000BDE8F08FC820FDF7C7F800208DF810009A
:1032C000D34A1268D17BD24A5268107804AB0122EB
:1032D000FEF746F810B14FF0FF30E8E7CC4A12682D
:1032E0005179CB4A5268107804AB0122FEF738F8C6
:1032F00010B14FF0FF30DAE7C54A1268917CC44A3A
:103300005268107804AB0122FEF72AF810B14FF092
:10331000FF30CCE7BE4A1268D17DBD4A52681078B2
:1033200004AB0122FEF71CF810B14FF0FF30BEE7EE
:10333000B74A12681179B64A5268107804AB012274
:10334000FEF70EF810B14FF0FF30B0E70C208DF80B
:103350001000AF4A12681179AD4A5268107804AB78
:103360000122FDF7FDFF10B14FF0FF309FE70F2066
:10337000FDF76AF8A648806A407A8DF81000A44AE2
:1033800012689178A24A5268107804AB0122FDF7C6
:10339000E7FF10B14FF0FF3089E79D48806A007A5F
:1033A0008DF810009A4A12685178994A526810783C
:1033B00004AB0122FDF7D4FF10B14FF0FF3076E7E8
:1033C000B9F1000F07D09248806A807A40F0E0009F
:1033D0008DF8100004E08E48806A807A8DF8100025
:1033E0008B4A126891798A4A5268107804AB01229C
:1033F000FDF7B6FF10B14FF0FF3058E7B9F1000FFD
:1034000007D08348806AC07A40F0E0008DF8100051
:1034100003E07E48C07A8DF810007D4A1268D179A9
:103420007B4A5268107804AB0122FDF799FF10B176
:103430004FF0FF303BE7B9F1000F02D0C820FDF795
:1034400003F840208DF81000714A12681179704A13
:103450005268107804AB0122FDF782FF10B14FF0E3
:10346000FF3024E778208DF81000694A12685179FE
:10347000674A5268107804AB0122FDF771FF10B162
:103480004FF0FF3013E761498889FCF7DDFF00202A
:103490008DF810005E4A126851795D4A52681078C2
:1034A00004AB0122FDF75CFF10B14FF0FF30FEE6E8
:1034B000574A1268917A564A5268107804AB022231
:1034C000FDF7AFFF10B14FF0FF30F0E69DF81100AF
:1034D0009DF8101040EA012B0C209BFBF0F0C6B2C7
:1034E0000020A86068602860A0606060206082465C
:1034F00065E0474A1268D17A454A5268107804ABB1
:103500000C22FDF78EFF10B14FF0FF30CFE69DF893
:1035100011009DF8101040EA012000B2ADF808003B
:103520009DF813009DF8121040EA012000B2ADF89A
:103530000A009DF815009DF8141040EA012000B221
:10354000ADF80C00BDF90810206808442060BDF9F2
:103550000A10606808446060BDF90C10A068084457
:10356000A0609DF817009DF8161040EA012000B2F7
:10357000ADF800009DF819009DF8181040EA0120F0
:1035800000B2ADF802009DF81B009DF81A1040EA49
:10359000012000B2ADF80400BDF90010286808440D
:1035A0002860BDF90210686808446860BDF904101D
:1035B000A8680844A8600AF1010000F0FF0AB245BB
:1035C00097DB1248D0F800C02868C117090441EA07
:1035D0001041070462460023384601F0E6FF3246F8
:1035E0000023CDE9020101F0E0FF28600748D0F890
:1035F00000C06868C117090441EA10410704624627
:103600000023384606E0000054E3853FA883000805
:103610009400002001F0C9FF32460023CDE90201E9
:1036200001F0C3FF6860FE48D0F800C0A868C11769
:10363000090441EA1041070462460023384601F0BC
:10364000B4FF32460023CDE9020101F0AEFFA860CD
:10365000F348D0F804C02168C817000440EA1148B4
:103660000F04624600233846414601F09EFF324671
:103670000023CDE9020101F098FF2060E848D0F86E
:1036800004C06068C117090441EA1041070462469A
:103690000023384601F089FF32460023CDE90201BC
:1036A00001F083FF6060DE48D0F804C0A068C11755
:1036B000090441EA1041070462460023384601F03C
:1036C00074FF32460023CDE9020101F06EFFA060D5
:1036D000A068002804DDA068A0F58030A06003E0A9
:1036E000A06800F58030A0600020E0E538B5044611
:1036F000CC4890F82400A04201D1002038BD24B36A
:10370000C84890F8250010B94FF0FF30F6E70020C8
:10371000FEF76AFB0020FEF789FCC249C88CFEF761
:10372000E8FE00200090BF49496808786B460122F6
:103730002321FDF715FE0121BA4880F8241001204D
:10374000FEF752FBFEF716FD13E00020FEF74CFBE0
:10375000B448007C0090B349496808786B46012260
:103760002321FDF7FDFD0021AE4880F82410FEF76F
:1037700001FD0020C2E72DE9F04F8DB083460F46D2
:1037800002200C90A74890F8240020B10020FFF7F9
:10379000ADFF012600E0002603A8FFF7EEF905A81B
:1037A000FFF70BFA01A8FFF72CFA02A8FFF74EFA71
:1037B0009C4890F80AA004A8FFF7A2FA002407E0AA
:1037C000002239465846FFF759FD00B902E0641C53
:1037D000022CF5DB00BF022C01D1002528E00024DB
:1037E00007E0012206A909A8FFF748FD00B902E099
:1037F000641C022CF5DB00BF022C01D1002517E070
:1038000006A93846FFF760FC00F0FF0809A95846F2
:10381000FFF7AAFC00F0FF090025B9F1000F01D164
:1038200045F00105B8F1000F01D145F0020500BFD8
:10383000FF207C490872FF217A484172C1724FF61D
:10384000FF71C181FF218172017401210173BDF8F3
:103850000C00FEF7DCFE9DF81400FEF796FEBDF8A6
:103860000400FEF79AFDBDF80800FEF742FE504640
:10387000FEF777FB9DF81000FEF75AFD16B1012008
:10388000FFF734FF28460DB0BDE8F08FF8B50446C9
:103890000D46164616B94FF0FF30F8BD6148807AE4
:1038A00010B94FF0FF30F8E720128DF80000E0B2B9
:1038B0008DF801009DF8010028445A49496849895A
:1038C000884202DD4FF0FF30E7E7564A1268117E6A
:1038D000544A526810786B460222FDF741FD10B140
:1038E0004FF0FF30D9E7EAB24E4B1B68597D4D4B84
:1038F0005B6818783346FDF733FD10B14FF0FF30A9
:10390000CBE70020C9E7F8B504460D46164616B9C0
:103910004FF0FF30F8BD4348807A10B94FF0FF30C8
:10392000F8E720128DF80000E0B28DF801009DF854
:10393000010028443B4949684989884202DD4FF02B
:10394000FF30E7E7374A1268117E364A526810782E
:103950006B460222FDF704FD10B14FF0FF30D9E7AE
:10396000EAB2304B1B68597D2E4B5B6818783346A2
:10397000FDF757FD10B14FF0FF30CBE70020C9E74E
:103980002DE9F04385B005460E46904699462548F8
:1039900090F8250020B14FF0FF3005B0BDE8F0836E
:1039A00016B94FF0FF30F8E7002423E0281B102859
:1039B00001DD102000E0281B87B23219394620466D
:1039C000FFF764FF10B14FF0FF30E6E701AA394678
:1039D0002046FFF798FF10B14FF0FF30DDE73019B8
:1039E0003A4601A901F082FE10B16FF00100D4E760
:1039F000E01984B2AC42D9DB4FEA28208DF80000F0
:103A000008F0FF008DF80100064A1268917E054A11
:103A1000526810786B460222FDF7A2FC38B103E031
:103A2000A8830008940000204FF0FF30B5E7012183
:103A30008A4880F82510A0F826900020ADE70146BE
:103A4000864890F8240008700020704702464FF026
:103A5000FF30704701464FF0FF307047F8B505461C
:103A60000F461446002C70D0B5F5FF5F01DDFF2630
:103A700005E0202D01DA012601E0C5F3471607B95C
:103A80000127282C02DD4FF0FF30F8BD7348407D40
:103A900028BB724890F8240038B10020FFF726FEBA
:103AA00001216E4880F8201003E000216B4880F867
:103AB00020106A481630FFF760F868481830FFF7A2
:103AC0007CF866481A30FFF79CF864481C30FFF712
:103AD000BDF86248817A81771F30FFF711F9002025
:103AE000FEF782F90020FEF797FC00208DF8000019
:103AF0005A4A12689178594A526810786B460122E6
:103B0000FDF72EFC10B14FF0FF30BEE740208DF8DE
:103B10000000524A1268D17B504A526810786B46B6
:103B20000122FDF71DFC00B165E08DF800608DF805
:103B300001704A4A1268117A484A526810786B46F6
:103B40000222FDF70DFC08B155E047E00520FCF727
:103B50007BFC4248407A072101EBC000C0B28DF8DF
:103B600000003E4A1268D1793C4A526810786B4690
:103B70000122FDF7F5FB00B13DE020208DF80000AB
:103B8000012C03D100208DF801000EE0052C03DC90
:103B900001208DF8010008E0142C03DC02208DF8D0
:103BA000010002E003208DF801009DF801000721CB
:103BB00001EB8010C0B28DF80100284A1268917C98
:103BC000264A526810786B460222FDF7C9FB00B105
:103BD00011E0012121484175002056E71F4A1632A5
:103BE000002103E0505C00B105E0491C0C29F9D329
:103BF0004FF0FF3049E7FF2018490872FF211748AE
:103C00004172C1724FF6FF71C181FF21817201744F
:103C1000012101730146887FFEF7A3F90F49C88A85
:103C2000FEF7F5FC0D49087EFEF7AFFC0B49488B0B
:103C3000FEF7B3FB0949888BFEF75BFC0749C87F99
:103C4000FEF776FB054890F8200010B10120FFF741
:103C50004DFD002101484175002016E79400002029
:103C600010B5C8234FF48062F74940F6F630FFF7ED
:103C700087FE10BD10B586B00446F4A0006803901E
:103C8000F3A000680290F3A000680190F2A0006821
:103C9000009004F0030003A9085C8DF8140003A849
:103CA000C4F3C101405C8DF8150003A8C4F3811171
:103CB000405C8DF8160004F0030002A9085C8DF842
:103CC000100002A8C4F3C101405C8DF8110002A8E5
:103CD000C4F38111405C8DF8120005AA032140F263
:103CE0002640FFF7D3FD18B14FF0FF3006B010BDEE
:103CF00004AA032140F22A40FFF7C8FD10B14FF09B
:103D0000FF30F3E7019805900098049014F0040F39
:103D10000BD09DF8140040F001008DF814009DF8C0
:103D2000100040F001008DF8100014F0200F0BD0AF
:103D30009DF8150040F001008DF815009DF8110068
:103D400040F001008DF8110014F4807F0BD09DF835
:103D5000160040F001008DF816009DF8120040F0AA
:103D600001008DF8120005AA03214FF48860FFF7C7
:103D70008DFD10B14FF0FF30B8E704AA032140F2E7
:103D80003140FFF783FD10B14FF0FF30AEE7B3488D
:103D900004810020AAE71FB50446B048007A00F06D
:103DA000030054F820000190AC48007A10F0040F92
:103DB00002D0019840420190A848007AC0F3C100A7
:103DC00054F820000290A548007A10F0200F02D08D
:103DD000029840420290A148007AC0F3811054F842
:103DE000200003909D48008910F4807F02D0039842
:103DF000404203909A49019880FB0101800F40EAFC
:103E0000810001909649029880FB0110820042EAED
:103E1000917002909249039880FB0110820042EA5F
:103E2000917003900198000E8DF800000198000C2D
:103E30008DF801000198000A8DF802000198C0B2C7
:103E40008DF803006A4604214FF47470FFF71EFDDD
:103E500018B14FF0FF3004B010BD0298000E8DF87D
:103E600000000298000C8DF801000298000A8DF8FD
:103E700002000298C0B28DF803006A4604214FF494
:103E80007570FFF703FD10B14FF0FF30E3E70398C3
:103E9000000E8DF800000398000C8DF801000398C7
:103EA000000A8DF802000398C0B28DF803006A463C
:103EB00004214FF47670FFF7E9FCCCE770B588B0C9
:103EC000064601A8FEF7F5FEBDF804000021C9036F
:103ED00041EA5045C4036148007A00F0030056F8F7
:103EE000200005905D48007A10F0040F02D005987C
:103EF000404205905948007AC0F3C10056F82000AE
:103F000006905648007A10F0200F02D006984042E2
:103F100006905248007AC0F3811056F820000790AE
:103F20004E48008910F4807F02D0079840420790E5
:103F30000598C117A0FB042301FB043100FB051009
:103F4000810041EA927005900698C117A0FB0423F6
:103F500001FB043100FB0510810041EA92700690DC
:103F60000798C117A0FB042301FB043100FB0510D7
:103F7000810041EA927007900598000E8DF80800C4
:103F80000598000C8DF809000598000A8DF80A00C4
:103F90000598C0B28DF80B000698000E8DF80C0045
:103FA0000698000C8DF80D000698000A8DF80E009A
:103FB0000698C0B28DF80F000798000E8DF810001B
:103FC0000798000C8DF811000798000A8DF8120070
:103FD0000798C0B28DF8130002AA0C214FF4257087
:103FE000FFF754FC08B070BD30B585B004461DA283
:103FF00007CA02AB07C3C82C03DD4FF0FF3005B082
:1040000030BDC82090FBF4F0401E85B2280A8DF820
:104010000000E8B28DF801006A46022140F2162045
:10402000FFF734FC10B14FF0FF30E8E702AA0C2193
:1040300040F6C120FFF72AFC10B14FF0FF30DEE759
:10404000064884810020DAE71E8400084CCD6C000D
:104050000CC92C003656760026466600500100201A
:1040600009E3CA02FEF2ABC4AAF1DFDFBBAFDFDFB8
:104070000146FC4880890880002070472DE9FC47F4
:1040800006460F4616F0070F02D0B7F5C86F03DDDE
:104090004FF0FF30BDE8FC87384603F031FF814622
:1040A000F14903F0E3FD80466846FEF786FD9DF882
:1040B0000000022806D0042816D0082826D0102890
:1040C00048D135E04FF08D41404603F061FF814615
:1040D00003F0DEFE84B2E549404603F059FF814615
:1040E00003F0D6FE85B238E04FF08C41404603F035
:1040F0004FFF814603F0CCFE84B2DD49404603F019
:1041000047FF814603F0C4FE85B226E04FF08B41A5
:10411000404603F03DFF814603F0BAFE84B2D54924
:10412000404603F035FF814603F0B2FE85B214E04D
:104130004FF08A41404603F02BFF814603F0A8FE72
:1041400084B2CD49404603F023FF814603F0A0FE30
:1041500085B202E04FF0FF309CE700BF20128DF8DF
:104160000400E0B28DF8050028128DF80600E8B2D0
:104170008DF8070016F0010F14D001AA02214FF4A8
:10418000EA70FFF783FB10B14FF0FF3082E70DF1CB
:10419000060202214FF49270FFF778FB10B14FF046
:1041A000FF3077E716F0020F14D001AA02214FF476
:1041B000EC70FFF76BFB10B14FF0FF306AE70DF1C9
:1041C000060202214FF49470FFF760FB10B14FF02C
:1041D000FF305FE716F0040F14D001AA02214FF45C
:1041E000EE70FFF753FB10B14FF0FF3052E70DF1C7
:1041F000060202214FF49670FFF748FB10B14FF012
:10420000FF3047E7002045E738B50446002000901E
:1042100014F0010F04D09DF8000040F03000009031
:1042200014F0020F04D09DF8000040F00C00009044
:1042300014F0040F04D09DF8000040F0030000903B
:104240006A4601214FF4A470FFF720FB38BD38B552
:104250000446012C01DA012402E0042C00DD0424D0
:10426000601EC0B200906A46012140F24F10FFF775
:104270000DFB38BD38B50446052094FBF0F085B23F
:1042800028128DF80000E8B28DF801006A4602217C
:104290004FF4EF70FFF7FAFA38BD38B50446052041
:1042A00094FBF0F085B228128DF80000E8B28DF88A
:1042B00001006A4602214FF4ED70FFF7E7FA38BDBE
:1042C000F8B505460E464FF47A7095FBF0F000FB0A
:1042D00006F4200E8DF80000200C8DF80100200A55
:1042E0008DF80200E0B28DF803006A4604214FF415
:1042F000AE70FFF7CBFAF8BD38B50446052094FB45
:10430000F0F084B220128DF80000E0B28DF80100C8
:104310006A4602214FF4AD70FFF7B8FA38BD38B5E0
:104320000446052094FBF0F084B220128DF80000C2
:10433000E0B28DF801006A4602214FF4AC70FFF73D
:10434000A5FA38BD38B5044614B94FF0FF3038BD72
:104350006A4604214FF45870FFF7D5FA10B14FF0B8
:10436000FF30F4E79DF8000000069DF8011040EAD8
:1043700001409DF8021040EA01209DF80310084317
:1043800020600020E3E738B50446200E8DF80000D9
:10439000200C8DF80100200A8DF80200E0B28DF8A3
:1043A00003006A4604214FF45870FFF76FFA38BDD6
:1043B00038B5044614B94FF0FF3038BD6A460421C1
:1043C0004FF47170FFF79FFA10B14FF0FF30F4E730
:1043D0009DF8000000069DF8011040EA01409DF89C
:1043E000021040EA01209DF80310084300EB800012
:1043F000800020600020E0E738B504461420B4FBBC
:10440000F0F4200E8DF80000200C8DF80100200A39
:104410008DF80200E0B28DF803006A4604214FF4E3
:104420007170FFF733FA38BD38B5044664B1202007
:104430008DF8000028208DF8010030208DF8020052
:1044400038208DF8030004E0A3220421684601F01F
:1044500079F96A46042140F69E20FFF717FAFDF726
:1044600089FE38BD5001002000004843000040464E
:104470000000C045000040450000C04438B5044677
:1044800064B1C0208DF80000C2208DF80100C42066
:104490008DF80200C6208DF8030004E08B22042171
:1044A000684601F04FF96A46042140F69820FFF76C
:1044B000EDF9FDF75FFE38BD3EB504466CB1FBA1DA
:1044C000D1E900208968CDE9002002916A460921DE
:1044D0004FF49760FFF7DAF93EBDF7A2D2E900107A
:1044E0009268CDE9010200916A4609214FF4976074
:1044F000FFF7CCF9F0E73EB5044602208DF8000046
:10450000CA208DF80100E3208DF8020009208DF803
:1045100003006A4604216820FFF7B8F9A3208DF84C
:10452000000014F0400F09D0C0208DF80100C82011
:104530008DF80200C2208DF8030006E0A3208DF85C
:1045400001008DF802008DF8030014F4C07F09D03B
:10455000C4208DF80400CC208DF80500C6208DF80D
:10456000060006E0A3208DF804008DF805008DF804
:104570000600A3208DF807008DF808008DF80900CB
:104580006A460A2140F6A720FFF780F914F0030FCE
:1045900003D020208DF8000002E0D8208DF8000024
:1045A0006A46012140F6B620FFF770F914F0200F9B
:1045B00003D00120FFF780FF02E00020FFF77CFF1F
:1045C00014F4C07F21D014F4807F0CD0B2208DF879
:1045D00000008B208DF80100B6208DF802009B2092
:1045E0008DF803000BE0B0208DF8000080208DF8DE
:1045F0000100B4208DF8020090208DF803006A4677
:10460000042140F6A220FFF741F914F0010F24D055
:10461000F8208DF800006A4601214FF40B60FFF787
:1046200035F9FA210720FFF729FD0720FFF7ECFDF8
:104630000120FFF70CFE6420FFF71CFE4FF4FA7018
:10464000FFF72BFEC8219F48FFF73AFE2820FFF70F
:1046500053FE0A20FFF763FE08E0D8208DF8000023
:104660006A4601214FF40B60FFF710F914F0020FB6
:1046700003D0D9208DF8000002E0D8208DF800008A
:104680006A46012140F23D70FFF700F914F0040F73
:1046900003D00120FFF7F2FE02E00020FFF7EEFE5C
:1046A00014F0100F03D00120FFF7BEFE02E000203F
:1046B000FFF7BAFE44F0080083494881FDF75AFD30
:1046C00000208149887314F0400F03D00846807B96
:1046D000801D887314F4C07F04D07B48807B801DCC
:1046E0007949887314F0140F04D07748807B103018
:1046F0007549887314F0030F04D07348807B001D44
:104700007149887300203EBD01466F48408908808A
:10471000002070472DE9F0410446E07800F0C00623
:10472000E07800F03F05607810F0010F13D0EF1033
:104730002846E91705EB5171C910A5EBC101491CC9
:1047400001F0FF086048006820B15F4841460268F8
:104750003846904700BF607810F0080F06D05A48DE
:10476000406818B1B011584A516888470020BDE828
:10477000F08110B586B0044654A207CA03AB07C344
:1047800055A207CA8DE80700012C09D0022C0ED1D2
:1047900003AA0B2140F68220FFF778F806B010BD7F
:1047A0006A460B2140F68220FFF770F8F6E74FF0DB
:1047B000FF30F3E72DE9F04F8DB0074688461546E8
:1047C0009946DDE9166B0024002030803E49887B45
:1047D0005A4605A9FEF7C1FB18B1601E0DB0BDE831
:1047E000F08F3948807A10F0140F7BD09DF81400B8
:1047F00000069DF8151040EA01409DF8161040EAA9
:1048000001209DF81710084328609DF81800000645
:104810009DF8191040EA01409DF81A1040EA012065
:104820009DF81B10084368609DF81C0000069DF869
:104830001D1040EA01409DF81E1040EA01209DF83D
:104840001F100843A8609DF8200000069DF8211065
:1048500040EA01409DF8221040EA01209DF8231013
:104860000843E86010342868001401906868001458
:104870000290A86800140390E8680014049001985E
:104880004043029901FB0100039901FB01000499D7
:1048900001FB010ABAF1706F02DBBAF1885F22DD19
:1048A000FDF768FC00203080401E97E7B8AAB38D62
:1048B000B4980D355D000000B8AAAAAAB088C3C597
:1048C000C700000009E3CA0250010020D8B1B9F3C3
:1048D0008BA391B609B4D900DAB1B9F38BA391B621
:1048E000DAB4DA0005E0B6F9000040F480703080F8
:1048F00000BF3348807A10F0400F23D005A9601C18
:10490000085C095D40EA012000B2A8F8000005A992
:10491000E01C095C05AAA01C105C41EA002000B262
:10492000A8F8020005A9601D095C201D105C41EA81
:10493000002000B2A8F80400A41DB6F9000040F061
:10494000080030801E48408910F4C07F20D005A99F
:10495000601C085C095D40EA012000B2388005A9AE
:10496000E01C095C05AAA01C105C41EA002000B212
:10497000788005A9601D095C201D105C41EA0020BB
:1049800000B2B880A41DB6F9000040F0700030807D
:104990000B48807A10F0030F03D005A90819FFF720
:1049A000B9FE4846FDF745FF002017E701460448D9
:1049B00001600020704701460148416000207047B7
:1049C000500100202DE9F04105460C46AA48016837
:1049D000204603F0E5FB0746A8480168384603F087
:1049E000D7FA0646A6480168304603F0D1F8A44934
:1049F0000860A4484168A448006803F0D1FB06465B
:104A0000A0488168304603F0CBFBA04908609D4870
:104A1000C06880F0004048609A48C06880F000405C
:104A200088609B480068C86008689449096803F07A
:104A3000AFFA064693480168304603F0A9F8914959
:104A40000860924948688D49096803F0A1FA064652
:104A50008C484168304603F09BF88A4948608B498E
:104A600088688649096803F093FA06468548816894
:104A7000304603F08DF8834988608449C8687F49CF
:104A8000096803F085FA06467E48C168304603F09F
:104A90007FF87C49C8607A480168284603F080FBAB
:104AA0007C4908607C48007803F02AFA064675487D
:104AB0000168304603F06CFA78490860764800785F
:104AC00003F01EFA06466F488168304603F060FA2C
:104AD000734908607048007803F012FA07466F487F
:104AE0000168384603F054FA06466E4801683046BD
:104AF00003F04EF86C490860084601686748006892
:104B000003F0B4F8694908606748016864480068C0
:104B100003F0ACF8664908606048006865490860C1
:104B20005D48007803F0ECF9064656484168304687
:104B300003F02EFA604908605E4801685B4800682F
:104B400003F026FA06464F480168304603F01DFB85
:104B50004C490860584801685448006803F018FA46
:104B6000064648484168304603F00FFB4549486017
:104B7000504801684E48006803F00AFA064641486A
:104B80008168304603F001FB3E4988604A4801686D
:104B90004748006803F0FCF906463A48C1683046C9
:104BA00003F0F3FA3749C8603A4801683F480068A3
:104BB00003F0EEF9064632480168304602F0E8FF9D
:104BC0002F490860334801683948006803F0E0F96C
:104BD000064629480168304602F0DAFF2649086097
:104BE00008460168204603F0DBFA34490860BDE856
:104BF000F0812DE9F04F8BB083468A46504602F093
:104C00009BFF80462E4A2F4B02F0BCFCCDE90201EF
:104C10001B48006802F090FFCDE90001DDE90223A6
:104C200002F01EFA04460D46274801684FF07E50F8
:104C300003F0B6FA804602F07FFF064622462B4676
:104C400002F0A0FCCDE906011F480168584603F0B8
:104C50009FF9044602F070FFCDE90401DDE9062367
:104C600002F0FEF9CDE9080102F0C8F90449086034
:104C70000BB0BDE8F08F0000F0000020D000002055
:104C8000E8000020D8000020C400002060010020BF
:104C9000C8000020F4000020D4000020F80000200C
:104CA000FC000020CC0000200001002004010020B6
:104CB000080100200C01002010010020EC00002061
:104CC0007B14AE47E17A743FC0000020014691F9A1
:104CD0000020002A01DD00201EE091F90020002ABA
:104CE00001DA042018E091F90120002A01DD0120F9
:104CF00012E091F90120002A01DA05200CE091F977
:104D00000220002A01DD022006E091F90220002A9B
:104D100001DA062000E00720704770B505462846F6
:104D2000FFF7D4FF0446E81CFFF7D0FF44EAC000B9
:104D300084B2A81DFFF7CAFF44EA801084B220465F
:104D400070BD70B588B002A905A8FEF714FD044631
:104D5000072C3FD101A8FDF78FFF059803F0B8F8A5
:104D60000646019903F014F9054603F075F805901D
:104D7000069803F0ADF80646019903F009F90546D7
:104D800003F06AF80690079803F0A2F80646019926
:104D900003F0FEF8054603F05FF8079005A8FEF75C
:104DA000FAFF6846FDF785FFBDF8001002984843FA
:104DB0000290BDF80010039848430390BDF800101E
:104DC00004984843049002A8FFF778F8FDA000F08B
:104DD00011FC00BF08B070BD2DE9F04304460D463C
:104DE000DDE907670021012041E0DFF8FCC33CF862
:104DF0001080A0F1010CDFF8F09329F81C8009F174
:104E0000160C3CF81090A0F1010CDFF8DC8308F1DF
:104E1000160828F81C9008F1160C3CF81090A0F128
:104E2000010C08F1160828F81C9008F1160C3CF843
:104E30001090A0F1010C08F1160828F81C9008F158
:104E4000160C3CF81090A0F1010C08F1160828F897
:104E50001C9008F1160C3CF81090A0F1010C08F120
:104E6000160828F81C9000F1010C0CF0FF000A282D
:104E7000BBDBDFF874C3ACF81240ACF82850ACF8D8
:104E80003E20ACF85430ACF86A60ACF88070002179
:104E9000002008E0DFF850C33CF910C0614400F185
:104EA000010C0CF0FF000A28F4DB4FF00A0C91FB18
:104EB000FCFC0FFA8CFCDFF83083A8F814C000214A
:104EC00000200AE0DFF820C30CF1160C3CF910C0FA
:104ED000614400F1010C0CF0FF000A28F2DB4FF0F6
:104EE0000A0C91FBFCFC0FFA8CF8DFF8FCC2ACF862
:104EF0002A80002100200AE0DFF8ECC20CF12C0C23
:104F00003CF910C0614400F1010C0CF0FF000A28CC
:104F1000F2DB4FF00A0C91FBFCFC0FFA8CF8DFF887
:104F2000C8C2ACF84080002100200AE0DFF8B8C217
:104F30000CF1420C3CF910C0614400F1010C0CF082
:104F4000FF000A28F2DB4FF00A0C91FBFCFC0FFA81
:104F50008CF8DFF894C2ACF85680002100200AE0FB
:104F6000DFF884C20CF1580C3CF910C0614400F128
:104F7000010C0CF0FF000A28F2DB4FF00A0C91FB49
:104F8000FCFC0FFA8CF8DFF860C2ACF86C800021F2
:104F900000200AE0DFF850C20CF16E0C3CF910C0A2
:104FA000614400F1010C0CF0FF000A28F2DB4FF025
:104FB0000A0C91FBFCFC0FFA8CF8DFF82CC2ACF861
:104FC0008280BDE8F08338B50446032302226B21BA
:104FD000D0200094FCF7FAFA38BD38B50446022315
:104FE00004221B21D0200094FCF7F0FA38BD38B51C
:104FF0000446022304221C21D0200094FCF7E6FA88
:1050000038BD10B50446234606226B21D020FCF79C
:1050100012FB10BD10B5754B01227521D020FCF795
:105020005EFA7248007810BD10B5FFF7F3FF6828EC
:1050300001D1012010BD0020FCE710B50446234635
:1050400005226A21D020FCF7F6FA10BD10B50446FF
:10505000234601223721D020FCF7EDFA10BD10B510
:105060000220FFF7B0FF0320FFF7B7FF0020FFF794
:10507000BEFF0020FFF7C5FF0020FFF7DEFF002086
:10508000FFF7E4FF10BD38B5002000906B46012209
:1050900075216820FCF7C5F955A000F0ABFA9DF822
:1050A000000068280ED000BF5A48006800F4E06095
:1050B00059490843001D57490860BFF3408F00BF9E
:1050C00000BFFEE7FDF7E5FA00283CD17820FCF7A9
:1050D00048FF10B946A000F08DFA7820FDF728F9B6
:1050E00010B94EA000F086FAC820FDF702FA10B9F8
:1050F00054A000F07FFAFEF7B3FD10B95BA000F0FA
:1051000079FA6748FFF709FE0446FEF7B3FD10B9C8
:1051100064A000F06FFA40F27310FFF7ECF910B9D9
:105120006AA000F067FAC820FEF75EFF10B971A010
:1051300000F060FAFFF705FE0120FEF7D7FA10B97C
:1051400075A000F057FA38BD2DE9F04F8FB00CA8CC
:105150007A490DAB08AACDE9001079497948FFF7E3
:1051600029FB7648008810F4807F2AD0089802F046
:10517000AFFE04464FF09D4102F078FD7249086091
:10518000099802F0A5FE04464FF09D4102F06EFD25
:105190006E4908600A9802F09BFE04464FF09D415C
:1051A00002F064FD6A4908600B9802F091FE044623
:1051B0004FF09D4102F05AFD66490860624801685F
:1051C000CAE09FE173657474696E672062696173F8
:1051D0002073756363657366756C6C79202E2E2E53
:1051E0002E2E2E0D0A0000007E01002070010020EE
:1051F0006D70755F7365745F73656E736F72206336
:105200006F6D706C657465202E2E2E2E2E2E0D0A5D
:10521000000000000CED00E00000FA056D70755F05
:10522000636F6E6669677572655F6669666F206336
:105230006F6D706C657465202E2E2E2E2E2E0D0A2D
:10524000000000006D70755F7365745F73616D7051
:105250006C655F7261746520636F6D706C657465F9
:10526000202E2E2E2E2E2E0D0A000000646D705F53
:105270006C6F61645F6D6F74696F6E5F6472697685
:1052800065725F6669726D7761726520636F6D70BC
:105290006C657465202E2E2E2E2E2E0D0A00000019
:1052A00024010020646D705F7365745F6F726965BF
:1052B0006E746174696F6E20636F6D706C65746578
:1052C000202E2E2E2E2E2E0D0A000000646D705FF3
:1052D000656E61626C655F66656174757265206399
:1052E0006F6D706C657465202E2E2E2E2E2E0D0A7D
:1052F00000000000646D705F7365745F6669666FBF
:105300005F7261746520636F6D706C657465202ECB
:105310002E2E2E2E2E0D0A006D70755F7365745F34
:10532000646D705F737461746520636F6D706C651C
:105330007465202E2E2E2E2E2E0D0A0040010020E8
:105340003A0100203401002014010020180100203F
:105350001C010020200100204FF0804002F018FEC8
:10536000069085480168069802F012FE824683483E
:1053700001684FF0404002F00BFE06908048016843
:10538000069802F005FE8346514602F001FC0790A4
:1053900002F0D2FB804601F0E3FA06464FF0663297
:1053A000784B02F0EFF8044601F028FE76490860D9
:1053B000714801684FF0804002F0EAFD03906E48AA
:1053C0000168039802F0E4FD82466C4801684FF0E2
:1053D000404002F0DDFD039068480168039802F048
:1053E000D7FD8346514602F0DBFE81464FF07E51E9
:1053F00002F0CEFB044602F09FFBCDE904016348B6
:1054000001684FF0804002F0C3FD83465B480168AD
:10541000584602F0BDFD8146574801684FF0804074
:1054200002F0B6FD834656480168584602F0B0FDCA
:105430008246494602F0ACFB044602F07DFB07467B
:10544000DDE9042301F0DCFC4FF066324D4BCDE981
:10545000060102F097F8054601F0D0FD4C490860BE
:1054600047480168006802F093FD039042480168D4
:10547000006802F08DFD029040480168006802F06B
:1054800087FD834641480168006802F081FD594666
:10549000019002F07DFB8246029902F081FE814676
:1054A000039902F07DFE044602F046FBCDE90401BB
:1054B000334801683548006802F06AFD82462E488C
:1054C00001682E48006802F063FD8346514602F0F1
:1054D0005FFB81464FF0804102F05AFD044602F026
:1054E0002BFB0746DDE9042301F08AFC4FF066320E
:1054F000244BCDE9060102F045F8054601F07EFD9A
:10550000244908600FB0BDE8F08F2DE9F05F42211B
:10551000D020FBF7C1FF05464121D020FBF7BCFF9F
:1055200005EB0024204602F0D3FC82464FF08E416A
:10553000504602F0F9FD05D24FF08F41504602F07F
:105540002FFE82461449504602F090FB834602F03B
:10555000F3FA8046114A124B01F082FD0646002202
:10556000104B02F00FF8044601F048FD8246504609
:1055700002F072FCBDE8F09F1C0100201801002021
:105580002001002066A64C404401002014010020A8
:10559000480100204C0100200000AA43A4703D0AED
:1055A000D743424000002440704710B54C1084EAB5
:1055B000530404D54042C1F1000138BF491E1B42CB
:1055C00004D55242C3F1000338BF5B1E00F0C6F899
:1055D00014F0804F04D04042C1F1000138BF491E91
:1055E00014F0004F04D05242C3F1000338BF5B1ED9
:1055F00010BD00000FB4044910B503AA029800F0D2
:105600009BFB10BC5DF814FB340000202DE9F04139
:105610000E460446002020622046E168884730B3E9
:10562000252805D0D4E901219047206A401CF2E7E3
:10563000E168204600278847050018D0A5F1410001
:10564000192802D820354FF40067324629462046F3
:105650002760FAF795FD40B1012804D0F61D26F029
:1056600007060836D8E7361DD6E72846DAE7206A67
:10567000BDE8F0812DE9F041064600241068752947
:10568000314616A511D0AFF30080002803DAC0F12F
:10569000000013A507E031688A0701D511A502E0D3
:1056A000490704D510A5012401E0AFF300800021D3
:1056B0000A2306F1240707E0B0FBF3F203FB120014
:1056C000303078541046491C0028F5D123462A462C
:1056D0003046BDE8F04100F0C3B800000000000013
:1056E0002D0000002B0000002000000040EA010314
:1056F00010B59B070FD1042A0DD310C808C9121F7B
:105700009C42F8D020BA19BA884201D9012010BDB4
:105710004FF0FF3010BD1AB1D30703D0521C07E081
:10572000002010BD10F8013B11F8014B1B1B07D1E5
:1057300010F8013B11F8014B1B1B01D1921EF1D156
:10574000184610BD02F0FF0343EA032242EA024278
:1057500000F006BB704770477047704753EA020C71
:1057600000F069802DE9F04B4FF00006002B1FBFC1
:10577000B3FA83F503FA05F424FA05F65E4012BF86
:105780001643B2FA82F502FA05F4C5F120051EBFF0
:1057900022FA05FC44EA0C04203556EA044C4FEA90
:1057A000144418BF641C4FF000084FF000099042E9
:1057B00071EB030C39D3002919BFB1FA81F701FA53
:1057C00007F6B0FA80F700FA07F6C7F120071EBF08
:1057D00020FA07FC46EA0C062037B6FBF4FCA7EBE0
:1057E0000507103F07F01F0BCBF120060CFA0BFB4F
:1057F0002CFA06F644BFB3460026202FA4BF5E460F
:105800004FF0000B5BEA060C08BF4FF0010B19EBE1
:105810000B09ABFB027C48EB0608C01B06FB02CC65
:105820000BFB03CC71EB0C01C1E70B460246414672
:105830004846BDE8F08B13B54FF000004FF0000173
:10584000AFF30080BDE81C40704710B500F0ACFA23
:10585000006810BD10B5044600F0A6FA046010BD43
:105860002DE9F0470D4699469246044600F124087A
:105870000168880604D5E06921F01001216000E08C
:105880000120A84202DDA0EB050700E00027A16986
:1058900007EB050202EB0900A1EB0000A0612078F4
:1058A000C00602D42046AFF30080002608E0D4E909
:1058B00001211AF806009047206A401C761C2062DD
:1058C0004E45F4DB2078C0060AD52046AFF30080B1
:1058D00006E0D4E9012130209047206A401C206274
:1058E000381EA7F10107F4DC07E0D4E9012118F81C
:1058F00005009047206A401C2062281EA5F1010582
:10590000F3DC2046AFF300802078000602D50220A9
:10591000BDE8F0870120FBE770472DE9FF4F0C46FB
:105920001E464FF0FF378BB0D2E90001DDF86080F2
:105930000A908A46C1F30A5505B93D46002108463A
:105940004FF00000BAF1000F00F4400005DA00EB60
:1059500080004FF4400101EA50004FEA9059B9F13C
:10596000010F00DDB9460A9850EA4A000ED044F60D
:105970001050A5F2FF3545432F14B8F1000F1ED08B
:105980007542291E1EDDC9F100021CE0B8F1010FAD
:105990004FF0000001D0302103E0F24305E0215434
:1059A000401CB042FBDB30460022002121540B9901
:1059B000C1F80880C1E900200FB0BDE8F08FBD1B21
:1059C0006D1CDEE74A4600DA694206A800F08EFA4E
:1059D00006AB07CB03AB07C350460A9900F094FB14
:1059E0008DE80700A0F500501F3800900398002DA7
:1059F00009DD42F21F014A46084403A903906846A4
:105A000000F0F3FD08E0A0F500504A461F3803A956
:105A10000390684600F0FDFD8DE807000004000CCF
:105A200003D04FF0FF30410800E01046B8F1000FFE
:105A300003D00022009215461FE0751E06D400F028
:105A4000B7F902F1300262556D1EF8D5B346012256
:105A5000084302D000227F1C04E02078302801D1C6
:105A600000227F1E002A099787D01DE0112D07DA3A
:105A700000F09EF9303262556D1C50EA0102F5D1FA
:105A800008430FD10021681E05E0235C625C63546B
:105A9000491C2254401E8142F7DBAB46A81B401E26
:105AA000099001E0009848B1002004F80B000B9821
:105AB000099AC0F80880C0E9002B7DE711264FF055
:105AC00000085AE72DE9F04F88460446D21D22F01F
:105AD000070191B0D1E90001CDE90A0100F0CFFE44
